:020000001D28B9
:10000800FF00030E83018316A4000A08A5008A01D5
:1000180083120C1C15288316A60A0319A70A831233
:100028000C10831625088A00240E8300FF0E7F0E0D
:020038000900BD
:10003A008A15ED238A118A157A268A117008D60044
:10004A007108D7007208D8007308D9000130031765
:10005A00A6008A153B258A1101308316ED0001306E
:10006A00EE004630A8003130A9003D30AA00203009
:10007A00AB00AC01A830EF008A1530268A1186152C
:10008A0056088316C500831257088316C6008312C2
:10009A0058088316C700831259088316C8005E30B1
:1000AA00C90042275E30C500B5270130ED00053092
:1000BA00EE005E30EF008A1530268A118A157A26FC
:1000CA008A117008D2007108D3007208D40073082C
:1000DA00D50002308316ED000130EE004630A8004C
:1000EA003230A9003D30AA002030AB00AC01A83064
:1000FA00EF008A1530268A11861152088316C50028
:10010A00831253088316C600831254088316C70045
:10011A00831255088316C8005E30C90042275E3034
:10012A00C500B5270230ED000530EE005E30EF0065
:10013A008A1530268A116630FB007630FC00C13001
:10014A00FD00FD0BA628FC0BA628FB0BA6280130F8
:10015A000317A6008A153B258A115608F00057088E
:10016A00F1005808F2005908F3008A1546278A1147
:10017A007008F4007108F5007208F6007308F700B9
:10018A008A1580248A1170088316C1007108C2007A
:10019A007208C3007308C40041088312DA00831688
:1001AA0042088312DB00831643088312DC0083169D
:1001BA0044088312DD005208F0005308F100540885
:1001CA00F2005508F3008A1546278A117008F400D0
:1001DA007108F5007208F6007308F7008A15802482
:1001EA008A1170088316BD007108BE007208BF002C
:1001FA007308C0003D088312CE0083163E0883129E
:10020A00CF0083163F088312D0008316400883125A
:10021A00D10083163D08F0003E08F1003F08F200C5
:10022A004008F3005F30F4007030F5000930F60042
:10023A006130F7008A1580248A1170088316B90084
:10024A007108BA007208BB007308BC003D08F400CC
:10025A003E08F5003F08F6004008F7004108F000A4
:10026A004208F1004308F2004408F3008A15AE2759
:10027A008A117008F4007108F5007208F600730814
:10028A00F70083163908F0003A08F1003B08F2003B
:10029A003C08F3008A1536238A1170088316B900C0
:1002AA007108BA007208BB007308BC0039088312CF
:1002BA00AA0083163A088312AB0083163B088312FE
:1002CA00AC0083163C088312AD00E730F000E93039
:1002DA00F1001D30F2008430F30083164108F40067
:1002EA004208F5004308F6004408F7008A158024FE
:1002FA008A1183163908F4003A08F5003B08F6001B
:10030A003C08F7008A1580248A117008F4007108E5
:10031A00F5007208F6007308F7000030F0000030AC
:10032A00F1000030F2007F30F3008A1536238A117B
:10033A007008A6007108A7007208A8007308A9002F
:10034A008A157A268A117008E9007108EA0072088B
:10035A00EB007308EC0001308316ED000130EE006B
:10036A004630A8003330A9003D30AA002030AB0047
:10037A002030AC002030AD002030AE002030AF007D
:10038A002030B0002030B1002030B2002030B3005D
:10039A002030B4002030B5002030B6002030B7003D
:1003AA00B801A830EF008A1530268A116908831629
:1003BA00C50083126A088316C60083126B08831667
:1003CA00C70083126C088316C8005E30C900422732
:1003DA005E30C500B5270130ED000530EE005E3015
:1003EA00EF008A1530268A116908F0006A08F100C0
:1003FA006B08F2006C08F3008A1546278A11700808
:10040A00F4007108F5007208F6007308F7008A15FF
:10041A0080248A117008A2007108A3007208A4003F
:10042A007308A5007008F4007108F5007208F60058
:10043A007308F7005A08F0005B08F1005C08F20044
:10044A005D08F3008A1536238A110030F400003063
:10045A00F5000030F6007F30F7008A15AE278A11C2
:10046A007008CA007108CB007208CC007308CD006E
:10047A00F101861F422A0130F1007108003A031D7A
:10048A00B92A4A08F0004B08F1004C08F2004D085E
:10049A00F3002608F4002708F5002808F6002908C2
:1004AA00F7008A1580248A110030F4002430F50000
:1004BA007430F6009230F7008A1580248A11700889
:1004CA00C6007108C7007208C8007308C90070081E
:1004DA008316C5007108C6007208C7007308C800F1
:1004EA002E30C9008A1500208A115E30C5002E30D0
:1004FA00C6000930C700C8018A15BF268A11023012
:10050A00ED000130EE004C30A8005B30A9007530D8
:10051A00AA004830AB005D30AC003D30AD00203061
:10052A00AE002030AF002030B0002030B1002030C3
:10053A00B2002030B3002030B4002030B5002030A3
:10054A00B6002030B700B801A830EF008A1530266F
:10055A008A1102308316ED000730EE005E30EF009C
:10056A008A1530268A112B2B4A08F0004B08F10015
:10057A004C08F2004D08F3002A08F4002B08F50095
:10058A002C08F6002D08F7008A1580248A112830D5
:10059A00F4006B30F5006E30F6009C30F7008A15D7
:1005AA0080248A1170088316A0007108A1007208BD
:1005BA00A2007308A3007008C5007108C60072087B
:1005CA00C7007308C8002E30C9008A1500208A1196
:1005DA005E30C5002E30C6000930C700C8018A1532
:1005EA00BF268A110230ED000130EE004330A80028
:1005FA005B30A9006E30AA004630AB005D30AC001B
:10060A003D30AD002030AE002030AF002030B000C9
:10061A002030B1002030B2002030B3002030B400C6
:10062A002030B5002030B6002030B700B801A8301D
:10063A00EF008A1530268A1102308316ED00073042
:10064A00EE005E30EF008A1530268A111530FB0065
:10065A004B30FC00BE30FD00FD0B312BFC0B312B67
:0A066A00FB0B312B0000A529392BF2
:100674007408F8027508031C750FF9027608031C48
:10068400760FFA027708031C770FFB02F30D07308D
:10069400FC00730DF80DF90DFA0DFB0D7408731CB5
:1006A400612BF8027508031C750FF9027608031C08
:1006B400760FFA027708031C770FFB026E2BF807FC
:1006C40075080318750FF90776080318760FFA07EB
:1006D40077080318770FFB07F30DFC0B4B2B720DF8
:1006E400F80DF90DFA0DFB0D7408731C872BF80235
:1006F4007508031C750FF9027608031C760FFA02BD
:100704007708031C770FFB02942BF807750803186E
:10071400750FF90776080318760FFA077708031898
:10072400770FFB07F20D0730FC00720DF80DF90D81
:10073400FA0DFB0D7408721CAD2BF8027508031C2E
:10074400750FF9027608031C760FFA027708031C6A
:10075400770FFB02BA2BF80775080318750FF90712
:1007640076080318760FFA0777080318770FFB0744
:10077400F20DFC0B972B710DF80DF90DFA0DFB0D15
:100784007408721CD32BF8027508031C750FF90248
:100794007608031C760FFA027708031C770FFB0216
:1007A400E02BF80775080318750FF9077608031886
:1007B400760FFA0777080318770FFB07F10D073058
:1007C400FC00710DF80DF90DFA0DFB0D7408711C88
:1007D400F92BF8027508031C750FF9027608031C3F
:1007E400760FFA027708031C770FFB02062CF80732
:1007F40075080318750FF90776080318760FFA07BA
:1008040077080318770FFB07F10DFC0BE32B700D32
:10081400F80DF90DFA0DFB0D7408711C1F2CF8026C
:100824007508031C750FF9027608031C760FFA028B
:100834007708031C770FFB022C2CF80775080318A4
:10084400750FF90776080318760FFA077708031867
:10085400770FFB07F00D0730FC00700DF80DF90D54
:10086400FA0DFB0D7408701C452CF8027508031C66
:10087400750FF9027608031C760FFA027708031C39
:10088400770FFB02522CF80775080318750FF90748
:1008940076080318760FFA0777080318770FFB0713
:1008A400F00DFC0B2F2C7018652C7408F8077508D4
:1008B4000318750FF90776080318760FFA077708F7
:0808C4000318770FFB07080081
:1008CC00831203172308803A031D762C2208003A62
:1008DC00031D762C2108003A031D762C2008003AC3
:1008EC00031D9E2C240884002D308000840A323095
:1008FC008000840A31308000840A34308000840AFD
:10090C0037308000840A34308000840A383080000C
:10091C00840A33308000840A36308000840A3430F4
:10092C008000840A38308000840A8001840A562DA5
:10093C0083160313EE018030831203172306F00095
:10094C0080307002031DB42C00302202031DB42C25
:10095C0000302102031DB42C003020020318D62CC9
:10096C00FF3083160313EE00F001F101F201F301E5
:10097C00831203172008F0022108031C210FF10237
:10098C002208031C220FF2022308031C230FF3027C
:10099C007008A0007108A1007208A2007308A300DF
:1009AC002408840020308000840A20308000840ACF
:1009BC0020308000840A20308000840A203080009F
:1009CC00840A20308000840A20308000840A203081
:1009DC008000840A20308000840A20308000840A41
:1009EC0030308000840A8001840A0A302407831680
:1009FC000313ED000030F000831203172306031DD0
:100A0C00112D70082206031D112D70082106031DDF
:100A1C00112D2008003A03194D2D0A30F400F50170
:100A2C00F601F7012008F0002108F1002208F2007D
:100A3C002308F30057257808F0007908F1007A08AC
:100A4C00F2007B08F3003030F00783166D08840049
:100A5C00700880000A30F400F501F601F7018312EA
:100A6C0003172008F0002108F1002208F2002308E7
:100A7C00F300572570080317A0007108A100720835
:100A8C00A2007308A30083160313ED03002D831635
:100A9C0003136E080319562D6D0884002D30800049
:020AAC00080040
:100AAE00831203137408003A031D722D7508003A61
:100ABE00031D722D7608003A031D722D7708003A39
:100ACE00031D722DFF30F000FF30F100FF30F200F9
:100ADE007F30F3000D2E83120313FC01F71BFC0A6B
:100AEE00FD01FB01FA01F901F801730872047104AA
:100AFE0070040319062E73087706A000A01BFD09CB
:100B0E00F71F942DF409F509F609F709F40A0319EC
:100B1E00F50A0319F60A0319F70AF31FA12DF009B6
:100B2E00F109F209F309F00A0319F10A0319F20A9D
:100B3E000319F30A73087704A000A01BC22D3A23F1
:100B4E00FC1BDF2DFD1F062EF009F109F209F3093A
:100B5E00F00A0319F10A0319F20A0319F30AF80944
:100B6E00F909FA09FB09F80A0319F90A0319FA0A2D
:100B7E000319FB0A062EF71FD92DF31BD32D73086D
:100B8E00FB007208FA007108F9007008F800F30112
:100B9E00F201F101F001A92DF301F201F101F001D1
:100BAE00F00A0034F309F209F109F009FC17A62D39
:100BBE00F80A0319F90A0319FA0A0319FB0A740849
:100BCE007802031DA92D75087902031DA92D76083B
:100BDE007A02031DA92D77087B02031DA92DFB01A7
:100BEE00FA01F901F801F00A0319F10A0319F20AE0
:100BFE000319F30AF31FA92DA0012016FF34A0013B
:0E0C0E007C1C0C2E8A157F278A11003E0800E0
:100C1C008312031372087606A100F801F901730818
:100C2C007702031C312E7708FD007308F7007D084E
:100C3C00F3007608FD007208F6007D08F2007508D6
:100C4C00FD007108F5007D08F1007408FD007008C6
:100C5C00F4007D08F00077080319B22E7208FA0030
:100C6C00F217F61777087302F7000319642E083091
:100C7C007702031C5A2EF7007408F9007508F4006B
:100C8C007608F500F60108307702031C5A2EF7009F
:100C9C007408F9007508F400F50108307702031C9C
:100CAC005A2E7A08F200B22E77080319642E03101C
:100CBC00F60CF50CF40CF90CF70B5D2EA11F712E34
:100CCC00F909F409F509F609F90A0319F40A0319E3
:100CDC00F50A0319F60A7908F80774080318740F53
:100CEC00F00775080318750FF10776080318760FCF
:100CFC00F207A11B8A2E031C9A2EF20CF10CF00C9D
:100D0C00F80CF30F9A2EAC2E0318A02EF809F0094C
:100D1C00F109F209F80A0319F00A0319F10A031987
:100D2C00F20A8030FA06A62E0130FC008A15E12466
:100D3C008A11B42E0230FC008A15E1248A11B42EDB
:100D4C000430FC008A15F5268A11B42E0830FC00FC
:100D5C008A1573278A11B42E0030FC00000008009D
:100D6C0083120313FB01FC01F801730803192E2FE6
:100D7C007208FA00F2179E30F302F31F1E2FF309CC
:100D8C00F30A08307302031CF32EF300F80D7008FD
:100D9C00F8007108F0007208F100F20108307302DB
:100DAC00031CF32EF300F80D7008F8007108F00026
:100DBC00F10108307302031CF32EF300F80D7008D8
:100DCC00F800F00108307302031CF32EF300F80D49
:100DDC00F8017308031D0310FD2E73080319FD2E73
:100DEC000310F20CF10CF00CF80CF30BF62E7B1B31
:100DFC00781C0B2F031C0B2FF80A0319F00A03198C
:100E0C00F10A0319F20AF21B2B2FFA1F2E2FF209EB
:100E1C00F109F009F809F80A0319F00A0319F10AA3
:100E2C000319F20A2E2FF201F101F001F8012E2F15
:100E3C007B14FB1F312FF201FA1F312FF200F1004E
:100E4C00F000F800FA0DF20C312F0130FC00332FBA
:100E5C000030FC00332FFF30FC00FC080319392F45
:100E6C008A155A278A117208F3007108F20070086B
:080E7C00F1007808F000080005
:100E8400831603134908840020308000840A20302C
:100E94008000840A20308000840A20308000840A84
:100EA40020308000840A20308000840A20308000B2
:100EB400840A20308000840A20308000840A303084
:100EC4008000840A8001840A09304907CA0000307E
:100ED400F0004806031D782F70084706031D782F7D
:100EE40070084606031D782F4508003A0319B42FED
:100EF4000A30F400F501F601F7014508F000460850
:100F0400F1004708F2004808F3008A15BE218A114F
:100F14007808F0007908F1007A08F2007B08F30001
:100F24003030F00783164A088400700880000A30C5
:100F3400F400F501F601F7014508F0004608F10058
:100F44004708F2004808F3008A15BE218A11700888
:100F54008316C5007108C6007208C7007308C8006C
:060F6400CA03692F08001A
:100F6A00831603134508F1004508F200720884004D
:100F7A000008203A031DC32FF20ABB2F720884000F
:100F8A000008F0007108840070088000F10AF20A73
:100F9A00720884000008003A0319D42FC32F71087D
:060FAA0084008001080034
:1010000083160313EB014508F0004608F10047087A
:10101000F2004808F3008A11B6268A157008831674
:10102000CA007108CB007208CC007308CD00F4012F
:10103000F501F601F7014508F0004608F100470800
:10104000F2004808F3009225FF3003180030F0004A
:10105000700803192E28FF308316EB0083164A0808
:1010600083120317A000831603134B088312031780
:10107000A100831603134C0883120317A2008316E2
:1010800003134D0883120317A300D330A4008A1161
:1010900066248A15831603134A08F0004B08F100F2
:1010A0004C08F2004D08F30024277008F400710882
:1010B000F5007208F6007308F70083164508F00083
:1010C0004608F1004708F2004808F300AE27003058
:1010D000F4005030F5004330F6008F30F7008024E4
:1010E0008A11B6268A1570088316CA007108CB00CB
:1010F0007208CC007308CD0080307306F400803095
:101100007402031D8D2800307202031D8D280030EB
:101110007102031D8D28003070020318AA2883165F
:10112000F001F101F201F3014A08F0024B08031C3F
:101130004B0FF1024C08031C4C0FF2024D08031C2C
:101140004D0FF3027008CA007108CB007208CC0082
:101150007308CD0083164A0883120317A000831674
:1011600003134B0883120317A100831603134C08C3
:1011700083120317A200831603134D08831203176B
:10118000A300DF30A4008A1166248A158316031396
:10119000CE01CF01D001D101490884002030800068
:1011A000840A20308000840A20308000840A2030A5
:1011B0008000840A20308000840A20308000840A65
:1011C00020308000840A20308000840A2030800093
:1011D000840A20308000840A30308000840A800134
:1011E000840A4508F0004608F1004708F200480864
:1011F000F3008A11B6268A1570088316CA00710892
:10120000CB007208CC007308CD000030EC007306F0
:10121000031D14296C087206031D14296C0871063D
:10122000031D14297008003AFF30031D0030EC0044
:10123000F401F501F601F7014508F0004608F10058
:101240004708F2004808F3009225FF3003180030E9
:10125000F00083166C08F00503193529490884004D
:101260002D3080000130CE00CF015308D20052084B
:10127000203A031D4629D00A0319D10AD330F000C1
:101280005008700784000008D20037295208003A3D
:1012900003195D294E084907840052088000D00ACE
:1012A0000319D10ACE0A0319CF0AD330F00050082F
:1012B000700784000008D20046296B08003AFF300E
:1012C000031D0030F10000304F06031D6929003076
:1012D0004E06FF30031D0030F0007108F0050319C1
:1012E00079294E084907840030308000CE0A03195E
:1012F000CF0A00304F06031D7F2901304E06FF3014
:10130000031D0030F0006B08F00503198F294E080B
:101310004907840030308000CE0A0319CF0A4E08F6
:10132000490784002E308000CE0A0319CF0A063008
:10133000D000D1016508D2005208003A0319B9293A
:101340005208203A031DA6293030D2004E08490722
:10135000840052088000D00A0319D10ACE0A03196A
:10136000CF0ADF30F0005008700784000008D20078
:0C1370009C294E084907840080010800F9
:10137C0083120313FB01FA01F901F801A001730DAB
:10138C00F80D7408F8027508031C750FF90276083D
:10139C00031C760FFA027708031C770FFB0200017F
:1013AC00031C0130A002F30D0730FC00730DF80D87
:1013BC00F90DFA0DFB0DA00D7408731CF729F8023A
:1013CC007508031C750FF9027608031C760FFA02D8
:1013DC007708031C770FFB020001031C0130A002ED
:1013EC00082AF80775080318750FF907760803180B
:1013FC00760FFA0777080318770FFB07000103181D
:10140C000130A007F30DFC0BDC29720DF80DF90D62
:10141C00FA0DFB0DA00D7408731C262AF802750832
:10142C00031C750FF9027608031C760FFA02770875
:10143C00031C770FFB020001031C0130A002372AAA
:10144C00F80775080318750FF90776080318760F57
:10145C00FA0777080318770FFB0700010318013010
:10146C00A007F20D0730FC00720DF80DF90DFA0D06
:10147C00FB0DA00D7408721C552AF8027508031C8C
:10148C00750FF9027608031C760FFA027708031C15
:10149C00770FFB020001031C0130A002662AF8073B
:1014AC0075080318750FF90776080318760FFA07F5
:1014BC0077080318770FFB07000103180130A0070A
:1014CC00F20DFC0B3A2A710DF80DF90DFA0DFB0D0E
:1014DC00A00D7408721C842AF8027508031C750F81
:1014EC00F9027608031C760FFA027708031C770FB3
:1014FC00FB020001031C0130A002952AF8077508B5
:10150C000318750FF90776080318760FFA07770892
:10151C000318770FFB07000103180130A007F10D2A
:10152C000730FC00710DF80DF90DFA0DFB0DA00D37
:10153C007408711CB32AF8027508031C750FF902A4
:10154C007608031C760FFA027708031C770FFB0250
:10155C000001031C0130A002C42AF8077508031807
:10156C00750FF90776080318760FFA077708031832
:10157C00770FFB07000103180130A007F10DFC0BDE
:10158C00982A700DF80DF90DFA0DFB0DA00D7408CD
:10159C00711CE22AF8027508031C750FF902760813
:1015AC00031C760FFA027708031C770FFB0200016D
:1015BC00031C0130A002F32AF80775080318750FF5
:1015CC00F90776080318760FFA0777080318770FD0
:1015DC00FB07000103180130A007F00D0730FC00D9
:1015EC00700DF80DF90DFA0DFB0DA00D7408701CA3
:1015FC00112BF8027508031C750FF9027608031CF1
:10160C00760FFA027708031C770FFB020001031C0C
:10161C000130A002222BF80775080318750FF90783
:10162C0076080318760FFA0777080318770FFB076D
:10163C00000103180130A007F00DFC0BF62A7018FE
:10164C00352B7408F80775080318750FF907760819
:10165C000318760FFA0777080318770FFB070800B3
:10166C00831203137408003A031D512B7508003ABA
:10167C00031D512B7608003A031D512B7708003AB5
:10168C00031D512BFF30F000FF30F1007F30F200D2
:10169C00FF30F300EC2B8312031377080319E02BB4
:1016AC0073080319E32B720876068039FA00F217D7
:1016BC00F617A1017208F8007108FC007008FD0013
:1016CC007408FD027508031C750FFC027608031CD8
:1016DC00760FF802F801FC01FD01031C7C2B0310B2
:1016EC00F20CF10CF00CF80C0130A1007708F302AD
:1016FC00031C862B7E302107F3070318E62B8B2B5C
:10170C007E302107F307031CE92B1830FA07FD0D77
:10171C00FC0DF80DF00DF10DF20DA10D7408F00299
:10172C007508031C750FF1027608031C760FF20284
:10173C00760DA104211CA42B7D14AF2B7408F0078B
:10174C0075080318750FF10776080318760AF20767
:10175C007D10FA031F307A05031D8D2B7B1B7D1C1E
:10176C00D62B0310F00DF10DF20DA10D7408F00243
:10177C007508031C750FF1027608031C760FF20234
:10178C00760D21040139FD070318FC0A0319F80A28
:10179C00031DD62BF80CFC0CFD0CF30A0319E62BDD
:1017AC00FA1FF8137808F2007C08F1007D08F000AD
:1017BC000030EB2B0130BF27EB2B0230A727EB2B94
:0E17CC0004307327EB2B08306727000008005D
:1017DA000730831203139F00831605108510051125
:1017EA008511C730860081138312861183160C1463
:1017FA00E22501300317A6003B250330FB00083021
:10180A00FC007730FD00FD0B082CFC0B082CFB0BB1
:10181A00082C0C300317A6003B2501308316ED0077
:10182A000130EE004C30C5004330C6006D30C700B1
:10183A006530C8007430C9006530CA007230CB0008
:10184A002030CC006230CD007930CE002030CF007D
:10185A004730D0004330D1006130D2007230D3001B
:10186A00D401C530EF00302602308316ED00013076
:10187A00EE004330C5006130C6006C30C7006930E5
:10188A00C8006230C9007230CA006130CB007430BF
:10189A00CC006930CD006F30CE006E30CF002030E2
:1018AA00D0007430D1006930D2006D30D300653079
:1018BA00D400D501C530EF0030262930FB00963020
:1018CA00FC007F30FD00FD0B682CFC0B682CFB0B29
:1018DA00682C023090000B178B170C10D601D70119
:1018EA00D801D901D201D301D401D501E901EA0114
:0618FA00EB01EC01080007
:1019000083120313FB017308031D77080319D72CF7
:1019100072087606FA007708F3077E30031C942CD1
:10192000F3020318DA2C972CF302031CDD2C720847
:10193000F8007108FC007008FD00F817F617031096
:10194000F201F101F0011830A1007D1CB12C7408E6
:10195000F00775080318750FF10776080318760F5E
:10196000F207F20CF10CF00CF80CFC0CFD0C03105F
:10197000A10BA52CF21BC12CF80DF00DF10DF20DF1
:10198000F3037B1B701CD32CF81FD32CF00A031914
:10199000F10A0319F20A031DD32CF20CF10CF00C1E
:1019A000F30A0319DA2CFA1FF2130030DF2C01308E
:1019B000A727DF2C02307327DF2C043067270000B5
:0219C00008001D
:1019C2007C18172DFC18E82C7C19362DE12CA1016E
:1019D2007208031D082D7108F2007008F1007808E2
:1019E200F000F801A1157208031D082D7108F2001C
:1019F2007008F100F001A11121167208031D082DD3
:101A02007108F200F101A115720803192A2D2108AB
:101A1200F302031D031C2E2D0310F21B172DF80DCC
:101A2200F00DF10DF20DF30B0E2D2E2D7B1B701C04
:101A3200322DF81F322DF00A0319F10A0319F20AA6
:101A4200031D322DF20CF10CF00CF30A0319362DA2
:101A5200322D0130FC00A727392D0230FC00672708
:101A6200392D0430FC00BB27392D0830FC007327C8
:041A72000000080068
:101A760083120317A61B422D03138511442D03134E
:101A860085150317261B4A2D031305114C2D031329
:101A960005150317A61A522D03138510542D03138B
:101AA60085140317261A5A2D031305105C2D0313EC
:101AB60005146D18602D0616612D06128616B627BA
:101AC60086120317A6196A2D031385116C2D0313AD
:101AD600851503172619722D03130511742D03138B
:101AE60005150317A6187A2D031385107C2D0313ED
:101AF600851403172618822D03130510842D03134E
:101B060005146D18882D0616892D06128616B62719
:0E1B160086126D1C902D8B27912D9F270800A5
:101B240083120313FA017308031D7A147708031D43
:101B3400FA147A080319DE2D033A0319A92D7A1829
:101B4400A62DF61FDC2DDA2DF21FDA2DDC2D7208FE
:101B54008039FA00F21376088039F6137A060319ED
:101B6400B72D7A080319DA2DDC2D770873020319CF
:101B7400BE2D031CD22DD62D760872020319C52D55
:101B8400031CD22DD62D750871020319CC2D031C0C
:101B9400D22DD62D740870020319DE2D0318D62D0C
:101BA400FA080319DC2DDA2DFA080319DA2DDC2DD5
:101BB40003140800031008000314031508000800A8
:101BC400831603138612061205108510051185115C
:101BD40083128612061285110511851005108B27B4
:101BE4008B278B27851405148616B62786128B2718
:101BF4008616B62786128B278616B62786128B275B
:101C040005108616B62786128B278616B6278612E7
:101C1400851085158616B62786128B27851105141F
:101C24008616B627861205108616B62786128B27C7
:101C34008616B627861205148616B62786128B27B3
:101C440005108616B6278612851505158514051404
:0C1C54008616B62786128B276D14080038
:101C6000831603136D08013A031D392E8030ED00F1
:101C7000502E6D08023A031D402EC030ED00502E4C
:101C80006D08033A031D472E9430ED00502E6D0869
:101C9000043A031D4E2ED430ED00502E8030ED005E
:101CA0006E03F0006D08F0077008ED0070088312F5
:101CB0000317A6003B256D100317A001200883160B
:101CC00003136F0784000008003A0319762E83126D
:101CD00003172008831603136F078400000883127C
:101CE0000317A50096270317A00A5E2E831203137D
:041CF0006D14080067
:101CF40083160313A601A70183128F018E0110140A
:101D04001530FB004B30FC00BE30FD00FD0B882E6F
:101D1400FC0B882EFB0B882E00001010831627085E
:101D2400F3002608F200F001F1017008F5007108D3
:101D3400F6007208F7007308F80083120F08F10028
:101D4400F0017008EE007108EF000E08F004003096
:101D5400F1047008EE007108EF007008F5047108D2
:101D6400F6040030F704F8047508F0007608F10072
:0A1D74007708F2007808F300080079
:101D7E00831603134508F1004608F20000304806AA
:101D8E00031DCB2E003047060319E32E7208840084
:101D9E000008003A031DD42EE32E0130C702031CA7
:101DAE00C803720884000008F000710884007008EF
:101DBE008000F10AF20AC52E00304806031DE92EF6
:101DCE00003047060319F42E0130C702031CC80366
:0C1DDE00710884008001F10AE32E080067
:101DEA00A1017208031D0A2F7108F2007008F100A0
:101DFA00F001A1157208031D0A2F7108F200F10102
:101E0A00A111211672080319182F2108F302031DC4
:101E1A00031C1C2F0310F21B202FF00DF10DF20DE5
:101E2A00F30B102F1C2F0130FC00A727232F0230A1
:0E1E3A00FC006727232F0430FC00BB270800A4
:101E4800831203137008F8007108F0007208F1009B
:101E58007308F200F301FB01FC019E30F300FA0164
:101E6800F21F422FF809F009F109F209F80A0319DB
:101E7800F00A0319F10A0319F20AFA170230FC00F2
:041E8800E124080049
:101E8C00831203137008F8007108F0007208F10057
:101E9C007308F200F301FB01FC019E30F300FA0120
:081EAC000230FC00E1240800F3
:101EB4007B14FB1F652FF201FA1FFF30F200F100C3
:0A1EC400F000FA0DF20CFF300800E8
:101ECE007B15FB1F712F0130F300F201F101F001C0
:081EDE00FA0DF20CFF300800C0
:101EE600FB14FB1F7D2FFF30F300F200F100F00022
:081EF600FA0DF20CFF300800A8
:101EFE00FB09FA09F909F809F80A0319F90A03198D
:081F0E00FA0A0319FB0A08009E
:101F16001D3083120313FC009130FD00FD0B912F41
:061F2600FC0B912F0800E6
:101F2C00831203136D1003172508A6003B256D14AF
:021F3C0008009B
:101F3E00423083120313FD00FD0BA32F0000080097
:0E1F4E00F201F101F001F801F301003008008A
:101F5C00831203138030F6068A110E268A150800A8
:0A1F6C000000000000000000080063
:081F7600FA1FF213003008000D
:061F7E00FB15FF30080016
:02400E006A2125
:00000001FF
